:020000040800F2
:1000000000100020810700081107000817070008EA
:100010001D0700082307000829070008000000004A
:100020000000000000000000000000002F07000892
:100030003B070008000000004707000853070008BE
:10004000C9070008C9070008C9070008C907000850
:10005000C9070008C9070008C9070008C907000840
:10006000C9070008C9070008C9070008C907000830
:10007000C9070008C9070008C9070008C907000820
:10008000C9070008C9070008C907000800000000E8
:10009000000000000000000000000000C907000888
:1000A000C9070008C9070008C9070008C9070008F0
:1000B00061070008C9070008C9070008C907000848
:1000C000C90700080000000000000000C907000880
:1000D000C9070008C9070008C9070008C9070008C0
:1000E000C9070008C9070008C90700080000000088
:1000F0000000000000000000000000000000000000
:1001000000000000000000000000000000000000EF
:100110000000000000000000C9070008C90700082F
:1001200000000000000000000000000000000000CF
:1001300000000000000000000000000000000000BF
:1001400000000000000000000000000000000000AF
:10015000000000000000000000000000000000009F
:10016000000000000000000000000000000000008F
:10017000000000000000000000000000000000007F
:10018000000000000000000000000000000000006F
:10019000000000000000000000000000000000005F
:1001A000000000000000000000000000000000004F
:1001B000000000000000000000000000000000003F
:1001C0000000000000000000000000005FF808F1DF
:1001D00010B5054C237833B9044B13B10448AFF381
:1001E00000800123237010BD2000002000000000CB
:1001F000EC1D000808B5034B1BB103490348AFF3DE
:10020000008008BD0000000024000020EC1D000854
:1002100080B500AF00F0D9FA00F00EF800F094F8C5
:1002200000F046F8034801F0E5F9322000F0ECF95F
:10023000FEE700BF4800002080B590B000AF07F196
:10024000180328220021184601F0C8FD3B1D00229A
:100250001A605A609A60DA601A610223BB61012356
:10026000BB621023FB6200237B6307F1180318466F
:1002700000F0C8FD0346002B01D000F0BFF90F23AA
:100280007B600023BB600023FB6000233B610023F5
:100290007B613B1D0021184601F034F80346002B1A
:1002A00001D000F0ABF900BF4037BD4680BD000073
:1002B00080B586B000AF07F1080300221A605A60CB
:1002C0009A60DA603B4600221A605A601D4B4FF07C
:1002D00080421A601B4B41F63F725A60194B002254
:1002E0009A60184B0922DA60164B00221A61154BEE
:1002F00000229A61134801F02DF90346002B01D02A
:1003000000F07CF94FF48053BB6007F108031946F5
:100310000C4801F0B9FA0346002B01D000F06EF949
:1003200000233B6000237B603B461946054801F0F3
:10033000B9FC0346002B01D000F060F900BF18376C
:10034000BD4680BD4800002080B586B000AF07F1F3
:10035000080300221A605A609A60DA60214B9B6998
:10036000204A43F0040393611E4B9B6903F004038E
:100370007B607B681B4B9B691A4A43F008039361BF
:10038000184B9B6903F008033B603B6800224FF465
:100390007C71154800F004FD00227F21134800F015
:1003A000FFFC4FF47C73BB600123FB6000233B61C7
:1003B00002237B6107F1080319460B4800F06CFB30
:1003C0007F23BB600123FB6000233B6102237B6131
:1003D00007F108031946054800F05EFB00BF183717
:1003E000BD4680BD0010024000080140000C0140E5
:1003F00080B582B000AF786001227F212E4800F0E6
:10040000CFFC7B68092B53D801A252F823F000BF20
:100410003904000845040008510400085D04000880
:100420006904000875040008810400088D040008B0
:1004300099040008A504000800223F211E4800F08E
:10044000AFFC35E0002206211B4800F0A9FC2FE09C
:1004500000225B21184800F0A3FC29E000224F2174
:10046000154800F09DFC23E000226621124800F0B0
:1004700097FC1DE000226D210F4800F091FC17E071
:1004800000227D210C4800F08BFC11E000220721A6
:10049000094800F085FC0BE000227F21064800F0AF
:1004A0007FFC05E000226F21034800F079FC00BFCB
:1004B00000BF0837BD4680BD000C014080B582B04A
:1004C00000AF78607B68032B50D801A252F823F06C
:1004D000E104000803050008250500084905000897
:1004E00000224021244800F05BFC01224FF460719F
:1004F000214800F055FC214B1B681846FFF778FF98
:1005000035E0002280211C4800F04AFC01224FF413
:100510005071194800F044FC184B5B681846FFF70F
:1005200067FF24E000224FF48071134800F038FC8C
:1005300001224FF43071104800F032FC0F4B9B68E1
:100540001846FFF755FF12E000224FF400710A48E9
:1005500000F026FC01224FF4E071074800F020FC77
:10056000064BDB681846FFF743FF00E000BF00BF03
:100570000837BD4680BD00BF0008014000000020D4
:1005800080B582B000AF7860184B1B68012B26D174
:10059000174B1B6803F5FA73154A1360144B1B685D
:1005A000B3F57A7F06DB1021124800F011FC104BE6
:1005B00000221A60104B1B681846FFF77FFF0E4B96
:1005C0001B6801330C4A13600B4B1B6804229342D7
:1005D00002DB094B00221A60322000F015F800F00F
:1005E00027F800BF0837BD4680BD00BF440000208B
:1005F00010000020000801403C00002080B400AF43
:1006000072B600BFFEE7000080B483B000AF786030
:10061000054A7B681360054B00221A6000BF0C3747
:10062000BD4680BC704700BF400000204400002051
:1006300080B400AF094B1B68002B0BDD074B1B6818
:10064000013B064A1360054B1B68002B02DC044B80
:1006500001221A6000BFBD4680BC704740000020E8
:100660004400002080B485B000AF154B9B69144A4C
:1006700043F001039361124B9B6903F00103BB60DC
:10068000BB680F4BDB690E4A43F08053D3610C4BC0
:10069000DB6903F080537B607B680A4B5B68FB601F
:1006A000FB6823F0E063FB60FB6843F08063FB6062
:1006B000044AFB68536000BF1437BD4680BC7047D6
:1006C000001002400000014080B584B000AF7860A7
:1006D0007B681B68B3F1804F13D10C4BDB690B4A6D
:1006E00043F00103D361094BDB6903F00103FB60B5
:1006F000FB68002200211C2000F097F91C2000F06C
:10070000B0F900BF1037BD4680BD00BF00100240E9
:1007100080B400AFFEE780B400AFFEE780B400AF66
:10072000FEE780B400AFFEE780B400AFFEE780B420
:1007300000AF00BFBD4680BC704780B400AF00BFB3
:10074000BD4680BC704780B400AF00BFBD4680BCD2
:10075000704780B500AF00F075F800BF80BD0000A5
:1007600080B500AF024800F09FFF00BF80BD00BF12
:100770004800002080B400AF00BFBD4680BC704779
:10078000FFF7F8FF0B480C490C4A002302E0D4584D
:10079000C4500433C4188C42F9D3094A094C0023CD
:1007A00001E013600432A242FBD301F0F3FAFFF739
:1007B0002FFD704700000020200000203C1E000894
:1007C0002000002094000020FEE780B500AF032049
:1007D00000F020F90F2000F005F8FFF743FF002399
:1007E000184680BD80B582B000AF7860124B1A68A1
:1007F000124B1B7819464FF47A73B3FBF1F3B2FB3B
:10080000F3F3184600F03BF90346002B01D0012317
:100810000EE07B680F2B0AD8002279684FF0FF307A
:1008200000F003F9064A7B681360002300E001230F
:1008300018460837BD4680BD140000201C0000206B
:100840001800002080B400AF054B1B781A46054BFA
:100850001B681344034A136000BFBD4680BC704749
:100860001C0000209000002080B400AF024B1B68E9
:100870001846BD4680BC70479000002080B485B00B
:1008800000AF78607B6803F00703FB600C4BDB680C
:10089000BB60BA684FF6FF031340BB60FB681A02E7
:1008A000BB68134343F0BF6343F40033BB60044AA7
:1008B000BB68D36000BF1437BD4680BC704700BF23
:1008C00000ED00E080B400AF044BDB681B0A03F0CE
:1008D00007031846BD4680BC704700BF00ED00E02E
:1008E00080B483B000AF0346FB7197F90730002B4B
:1008F0000BDBFB7903F01F02064997F907305B0910
:10090000012000FA02F241F8232000BF0C37BD4657
:1009100080BC704700E100E080B483B000AF0346C4
:100920003960FB7197F90730002B0ADB3B68DAB2BC
:100930000C4997F907301201D2B20B4483F8002317
:100940000AE03B68DAB20849FB7903F00F03043B85
:100950001201D2B20B441A7600BF0C37BD4680BCE0
:10096000704700BF00E100E000ED00E080B489B016
:1009700000AFF860B9607A60FB6803F00703FB61C1
:10098000FB69C3F10703042B28BF0423BB61FB6988
:100990000433062B02D9FB69033B00E000237B6193
:1009A0004FF0FF32BB6902FA03F3DA43BB681A4027
:1009B0007B699A404FF0FF317B6901FA03F3D94319
:1009C0007B680B40134318462437BD4680BC7047F4
:1009D00080B582B000AF78607B68013BB3F1807F67
:1009E00001D301230FE00A4A7B68013B53600F21CA
:1009F0004FF0FF30FFF790FF054B00229A60044B49
:100A000007221A60002318460837BD4680BD00BF84
:100A100010E000E080B582B000AF78607868FFF742
:100A20002DFF00BF0837BD4680BD80B586B000AF42
:100A30000346B9607A60FB7300237B61FFF742FFD6
:100A400078617A68B9687869FFF790FF024697F98C
:100A50000F3011461846FFF75FFF00BF1837BD463D
:100A600080BD80B582B000AF0346FB7197F90730B7
:100A70001846FFF735FF00BF0837BD4680BD80B57B
:100A800082B000AF78607868FFF7A2FF034618468F
:100A90000837BD4680BD000080B48BB000AF7860E1
:100AA000396000237B6200233B6269E101227B6A9B
:100AB00002FA03F3FB613B681B68FA691340BB61F0
:100AC000BA69FB699A4240F058813B685B689A4A70
:100AD00093425ED0984A934275D8984A934258D030
:100AE000964A93426FD8964A934252D0944A934280
:100AF00069D8944A93424CD0924A934263D8924A1E
:100B0000934246D0904A93425DD8122B2AD8122B9A
:100B100059D801A252F823F0930B00086D0B00087E
:100B20007F0B0008C10B0008C70B0008C70B0008AB
:100B3000C70B0008C70B0008C70B0008C70B00084D
:100B4000C70B0008C70B0008C70B0008C70B00083D
:100B5000C70B0008C70B0008C70B0008750B00087F
:100B6000890B0008794A934213D02CE03B68DB687C
:100B70003B6229E03B68DB6804333B6224E03B686E
:100B8000DB6808333B621FE03B68DB680C333B6289
:100B90001AE03B689B68002B02D104233B6213E000
:100BA0003B689B68012B05D108233B627B68FA698F
:100BB0001A6109E008233B627B68FA695A6103E025
:100BC00000233B6200E000BFBB69FF2B01D87B68BC
:100BD00001E07B6804337B61BB69FF2B02D87B6A31
:100BE0009B0002E07B6A083B9B003B617B691A68C3
:100BF0000F213B6901FA03F3DB431A40396A3B6971
:100C000001FA03F31A437B691A603B685B6803F0DF
:100C10008053002B00F0B1804D4B9B694C4A43F050
:100C2000010393614A4B9B6903F00103BB60BB68FE
:100C3000484A7B6A9B08023352F82330FB607B6A88
:100C400003F003039B000F2202FA03F3DB43FA686D
:100C50001340FB607B68404A934213D07B683F4A55
:100C600093420DD07B683E4A934207D07B683D4A51
:100C7000934201D1032306E0042304E0022302E0AF
:100C8000012300E000237A6A02F0030292009340FD
:100C9000FA681343FB602F497B6A9B080233FA68AA
:100CA00041F823203B685B6803F48013002B06D0D7
:100CB0002D4B9A682C49BB6913438B6006E02A4B85
:100CC0009A68BB69DB43284913408B603B685B68CB
:100CD00003F40013002B06D0234BDA682249BB69CA
:100CE0001343CB6006E0204BDA68BB69DB431E4947
:100CF0001340CB603B685B6803F40033002B06D0E5
:100D0000194B5A681849BB6913434B6006E0164BF0
:100D10005A68BB69DB43144913404B603B685B680E
:100D200003F48033002B21D00F4B1A680E49BB69A6
:100D300013430B6021E000BF0000321000003110AF
:100D400000002210000021100000121000001110FD
:100D5000001002400000014000080140000C01406A
:100D60000010014000140140000401400B4B1A68C0
:100D7000BB69DB43094913400B607B6A01337B622B
:100D80003B681A687B6A22FA03F3002B7FF48EAE6D
:100D900000BF00BF2C37BD4680BC70470004014037
:100DA00080B483B000AF78600B467B8013467B70C5
:100DB0007B78002B03D07A887B681A6103E07B88FC
:100DC0001A047B681A6100BF0C37BD4680BC7047AF
:100DD00080B485B000AF78600B467B807B68DB68B1
:100DE000FB607A88FB6813401A04FB68D9437B8850
:100DF0000B401A437B681A6100BF1437BD4680BCA4
:100E00007047000080B586B000AF78607B68002B2B
:100E100001D101236CE27B681B6803F00103002B06
:100E200000F08780924B5B6803F00C03042B0CD01E
:100E30008F4B5B6803F00C03082B12D18C4B5B6863
:100E400003F48033B3F5803F0BD1894B1B6803F467
:100E50000033002B6CD07B685B68002B68D10123CA
:100E600046E27B685B68B3F5803F06D1804B1B6828
:100E70007F4A43F4803313602EE07B685B68002B6D
:100E80000CD17B4B1B687A4A23F480331360784B78
:100E90001B68774A23F4802313601DE07B685B683E
:100EA000B3F5A02F0CD1724B1B68714A43F4802319
:100EB00013606F4B1B686E4A43F4803313600BE082
:100EC0006B4B1B686A4A23F480331360684B1B68C2
:100ED000674A23F4802313607B685B68002B13D080
:100EE000FFF7C2FC386108E0FFF7BEFC02463B6931
:100EF000D31A642B01D90323FAE15D4B1B6803F479
:100F00000033002BF0D014E0FFF7AEFC386108E0AE
:100F1000FFF7AAFC02463B69D31A642B01D90323CD
:100F2000E6E1534B1B6803F40033002BF0D100E0E3
:100F300000BF7B681B6803F00203002B63D04C4B9F
:100F40005B6803F00C03002B0BD0494B5B6803F08C
:100F50000C03082B1CD1464B5B6803F48033002B39
:100F600016D1434B1B6803F00203002B05D07B68AE
:100F70001B69012B01D00123BAE13D4B1B6823F013
:100F8000F8027B685B69DB00394913430B603AE088
:100F90007B681B69002B20D0364B01221A60FFF7BB
:100FA00063FC386108E0FFF75FFC02463B69D31A37
:100FB000022B01D903239BE12D4B1B6803F0020395
:100FC000002BF0D02A4B1B6823F0F8027B685B698A
:100FD000DB00274913430B6015E0264B00221A6003
:100FE000FFF742FC386108E0FFF73EFC02463B6930
:100FF000D31A022B01D903237AE11D4B1B6803F09E
:101000000203002BF0D17B681B6803F00803002B60
:101010003AD07B689B69002B19D0174B01221A60CC
:10102000FFF722FC386108E0FFF71EFC02463B692F
:10103000D31A022B01D903235AE10D4B5B6A03F04B
:101040000203002BF0D0012000F066FA1CE00A4BEE
:1010500000221A60FFF708FC38610FE0FFF704FC7C
:1010600002463B69D31A022B08D9032340E100BF93
:101070000010024000004242800442429E4B5B6AE4
:1010800003F00203002BE9D17B681B6803F0040323
:10109000002B00F0A6800023FB75974BDB6903F063
:1010A0008053002B0DD1944BDB69934A43F080535E
:1010B000D361914BDB6903F08053BB60BB680123B4
:1010C000FB758E4B1B6803F48073002B18D18B4B80
:1010D0001B688A4A43F480731360FFF7C5FB3861CD
:1010E00008E0FFF7C1FB02463B69D31A642B01D924
:1010F0000323FDE0814B1B6803F48073002BF0D0C9
:101100007B68DB68012B06D17B4B1B6A7A4A43F074
:10111000010313622DE07B68DB68002B0CD1764B5A
:101120001B6A754A23F001031362734B1B6A724AF0
:1011300023F0040313621CE07B68DB68052B0CD1F1
:101140006D4B1B6A6C4A43F0040313626A4B1B6AC3
:10115000694A43F0010313620BE0674B1B6A664A5E
:1011600023F001031362644B1B6A634A23F00403F8
:1011700013627B68DB68002B15D0FFF775FB3861C5
:101180000AE0FFF771FB02463B69D31A41F288324D
:10119000934201D90323ABE0574B1B6A03F00203D0
:1011A000002BEED014E0FFF75FFB38610AE0FFF799
:1011B0005BFB02463B69D31A41F28832934201D964
:1011C000032395E04C4B1B6A03F00203002BEED186
:1011D000FB7D012B05D1484BDB69474A23F0805347
:1011E000D3617B68DB69002B00F08180424B5B6838
:1011F00003F00C03082B61D07B68DB69022B46D11E
:101200003F4B00221A60FFF72FFB386108E0FFF721
:101210002BFB02463B69D31A022B01D9032367E05B
:10122000354B1B6803F00073002BF0D17B681B6A01
:10123000B3F5803F08D1304BDB6A23F00F027B68A7
:101240009B682D491343CB622B4B5B6823F47412CC
:101250007B68196A7B685B6A0B43274913434B60C1
:10126000274B01221A60FFF7FFFA386108E0FFF709
:10127000FBFA02463B69D31A022B01D9032337E05C
:101280001D4B1B6803F00073002BF0D02FE01C4BAC
:1012900000221A60FFF7E8FA386108E0FFF7E4FA85
:1012A00002463B69D31A022B01D9032320E0124BDB
:1012B0001B6803F00073002BF0D118E07B68DB693A
:1012C000012B01D1012313E00B4B5B68FB60FB6832
:1012D00003F480327B681B6A9A4206D1FB6803F4F0
:1012E00070127B685B6A9A4201D0012300E0002300
:1012F00018461837BD4680BD0010024000700040FF
:101300006000424280B584B000AF786039607B688D
:10131000002B01D10123A0E07B681B6803F00203CE
:10132000002B20D07B681B6803F00403002B05D042
:101330004C4B5B684B4A43F4E06353607B681B682B
:1013400003F00803002B05D0464B5B68454A43F485
:1013500060535360434B5B6823F0F0027B689B68EB
:10136000404913434B607B681B6803F00103002B6B
:1013700040D07B685B68012B07D13A4B1B6803F4B4
:101380000033002B15D1012367E07B685B68022BDB
:1013900007D1344B1B6803F00073002B09D10123E4
:1013A0005BE0304B1B6803F00203002B01D10123EB
:1013B00053E02C4B5B6823F003027B685B68294990
:1013C00013434B60FFF750FAF8600AE0FFF74CFA5E
:1013D0000246FB68D31A41F28832934201D90323B3
:1013E0003BE0204B5B6803F00C027B685B689B0072
:1013F0009A42EBD17B681B6803F00403002B08D0F2
:10140000184B5B6823F4E0627B68DB681549134383
:101410004B607B681B6803F00803002B09D0114B5D
:101420005B6823F460527B681B69DB000D49134342
:101430004B6000F01FF802460A4B5B681B0903F083
:101440000F030949CB5C22FA03F3084A1360084BE7
:101450001B681846FFF7C6F9002318461037BD462B
:1014600080BD00BF00100240041E000814000020D0
:101470001800002080B487B000AF0023FB60002379
:10148000BB6000237B6100237B6000233B611D4B1D
:101490005B68FB60FB6803F00C03042B02D0082B95
:1014A00003D026E0184B3B6126E0FB689B0C03F061
:1014B0000F03164AD35C7B60FB6803F48033002B78
:1014C0000FD0104BDB6A03F00F03114AD35CBB60F3
:1014D0007B680D4A02FB03F2BB68B2FBF3F37B614E
:1014E00004E07B680B4A02FB03F37B617B693B6191
:1014F00002E0054B3B6100BF3B6918461C37BD4607
:1015000080BC70470010024000127A00141E0008D0
:10151000241E000800093D0080B485B000AF78604B
:101520000A4B1B680A4AA2FB03235B0A7A6802FB88
:1015300003F3FB6000BFFB685A1EFA60002BF9D171
:1015400000BF00BF1437BD4680BC704714000020A8
:10155000D34D621080B582B000AF78607B68002BFD
:1015600001D1012341E07B6893F83D30DBB2002BD1
:1015700006D17B68002283F83C207868FFF7A4F846
:101580007B68022283F83D207B681A687B680433FD
:101590001946104600F064FA7B68012283F8462061
:1015A0007B68012283F83E207B68012283F83F207C
:1015B0007B68012283F840207B68012283F8412068
:1015C0007B68012283F842207B68012283F8432054
:1015D0007B68012283F844207B68012283F8452040
:1015E0007B68012283F83D20002318460837BD465A
:1015F00080BD000080B485B000AF78607B6893F850
:101600003D30DBB2012B01D001233FE07B68022299
:1016100083F83D207B681B68DA687B681B6842F0B2
:101620000102DA607B681B681B4A934213D07B6817
:101630001B68B3F1804F0ED07B681B68174A93423A
:1016400009D07B681B68164A934204D07B681B68EC
:10165000144A934211D17B681B689B6803F007030F
:10166000FB60FB68062B10D07B681B681A687B68E0
:101670001B6842F001021A6007E07B681B681A6869
:101680007B681B6842F001021A6000231846143779
:10169000BD4680BC704700BF002C014000040040E4
:1016A000000800400040014080B584B000AF786081
:1016B0007B681B68DB68FB607B681B681B69BB6021
:1016C000BB6803F00203002B20D0FB6803F0020389
:1016D000002B1BD07B681B686FF002021A617B68CD
:1016E00001221A777B681B689B6903F00303002BB8
:1016F00003D0786800F098F905E0786800F08BF97D
:10170000786800F09AF97B6800221A77BB6803F0CA
:101710000403002B20D0FB6803F00403002B1BD034
:101720007B681B686FF004021A617B6802221A77DB
:101730007B681B689B6903F44073002B03D07868B7
:1017400000F072F905E0786800F065F9786800F05B
:1017500074F97B6800221A77BB6803F00803002B3A
:1017600020D0FB6803F00803002B1BD07B681B68AC
:101770006FF008021A617B6804221A777B681B6885
:10178000DB6903F00303002B03D0786800F04CF909
:1017900005E0786800F03FF9786800F04EF97B6862
:1017A00000221A77BB6803F01003002B20D0FB68DF
:1017B00003F01003002B1BD07B681B686FF0100236
:1017C0001A617B6808221A777B681B68DB6903F45F
:1017D0004073002B03D0786800F026F905E07868A4
:1017E00000F019F9786800F028F97B6800221A7770
:1017F000BB6803F00103002B0CD0FB6803F001036E
:10180000002B07D07B681B686FF001021A617868B3
:10181000FEF7B6FEBB6803F08003002B0CD0FB681C
:1018200003F08003002B07D07B681B686FF08002F9
:101830001A61786800F0A5FABB6803F04003002B3A
:101840000CD0FB6803F04003002B07D07B681B68BB
:101850006FF040021A61786800F0F8F8BB6803F096
:101860002003002B0CD0FB6803F02003002B07D0D3
:101870007B681B686FF020021A61786800F078FAC4
:1018800000BF1037BD4680BD80B584B000AF786022
:1018900039600023FB737B6893F83C30012B01D146
:1018A0000223B4E07B68012283F83C207B6802229B
:1018B00083F83D207B681B689B68BB60BB6823F096
:1018C0007703BB60BB6823F47F43BB607B681B6806
:1018D000BA689A603B681B68B3F5005F3ED0B3F509
:1018E000005F00F28780B3F5805F00F08680B3F57B
:1018F000805F7FD8702B1AD0702B7BD8602B50D094
:10190000602B77D8502B3CD0502B73D8402B58D01D
:10191000402B6FD8302B64D0302B6BD8202B60D06D
:10192000202B67D8002B5CD0102B5AD062E07B684C
:1019300018683B6899683B685A683B68DB6800F048
:1019400092F97B681B689B68BB60BB6843F07703B8
:10195000BB607B681B68BA689A604FE07B68186858
:101960003B6899683B685A683B68DB6800F07BF924
:101970007B681B689A687B681B6842F480429A60A7
:101980003CE07B6818683B6859683B68DB681A462E
:1019900000F0F2F87B681B685021184600F049F906
:1019A0002CE07B6818683B6859683B68DB681A461E
:1019B00000F010F97B681B686021184600F039F9C7
:1019C0001CE07B6818683B6859683B68DB681A460E
:1019D00000F0D2F87B681B684021184600F029F916
:1019E0000CE07B681A683B681B681946104600F0DB
:1019F00020F903E00123FB7300E000BF7B680122B4
:101A000083F83D207B68002283F83C20FB7B18464E
:101A10001037BD4680BD80B483B000AF786000BF92
:101A20000C37BD4680BC704780B483B000AF78608F
:101A300000BF0C37BD4680BC704780B483B000AF98
:101A4000786000BF0C37BD4680BC704780B483B05F
:101A500000AF786000BF0C37BD4680BC7047000007
:101A600080B485B000AF786039607B681B68FB602C
:101A70007B683B4A93420BD07B68B3F1804F07D021
:101A80007B68384A934203D07B68374A934208D137
:101A9000FB6823F07003FB603B685B68FA681343E4
:101AA000FB607B682E4A934217D07B68B3F1804F6E
:101AB00013D07B682B4A93420FD07B682A4A93420B
:101AC0000BD07B68294A934207D07B68284A93420F
:101AD00003D07B68274A934208D1FB6823F4407304
:101AE000FB603B68DB68FA681343FB60FB6823F02C
:101AF00080023B685B691343FB607B68FA681A608D
:101B00003B689A687B68DA623B681A687B689A620D
:101B10007B68134A93420BD07B68144A934207D0E8
:101B20007B68134A934203D07B68124A934203D1E5
:101B30003B681A697B681A637B6801225A617B687B
:101B40001B6903F00103002B05D07B681B6923F0A0
:101B500001027B681A6100BF1437BD4680BC704724
:101B6000002C0140000400400008004000400140FB
:101B7000004401400048014080B487B000AFF860E5
:101B8000B9607A60FB681B6A7B61FB681B6A23F0A3
:101B90000102FB681A62FB689B693B613B6923F0A9
:101BA000F0033B617B681B013A6913433B617B692E
:101BB00023F00A037B617A69BB6813437B61FB688E
:101BC0003A699A61FB687A691A6200BF1C37BD46A0
:101BD00080BC704780B487B000AFF860B9607A60AD
:101BE000FB681B6A7B61FB681B6A23F01002FB68C1
:101BF0001A62FB689B693B613B6923F470433B615C
:101C00007B681B033A6913433B617B6923F0A003A4
:101C10007B61BB681B017A6913437B61FB683A698E
:101C20009A61FB687A691A6200BF1C37BD4680BCA6
:101C3000704780B485B000AF786039607B689B687E
:101C4000FB60FB6823F07003FB603A68FB6813439A
:101C500043F00703FB607B68FA689A6000BF1437A3
:101C6000BD4680BC704780B487B000AFF860B960F3
:101C70007A603B60FB689B687B617B6923F47F43F0
:101C80007B613B681A027B681A43BB6813437A691D
:101C900013437B61FB687A699A6000BF1C37BD46BD
:101CA00080BC704780B485B000AF786039607B68D5
:101CB00093F83C30012B01D102234BE07B680122D9
:101CC00083F83C207B68022283F83D207B681B68F8
:101CD0005B68FB607B681B689B68BB60FB6823F0EC
:101CE0007003FB603B681B68FA681343FB607B680A
:101CF0001B68FA685A607B681B68194A934213D0C4
:101D00007B681B68B3F1804F0ED07B681B68154A57
:101D1000934209D07B681B68134A934204D07B68C6
:101D20001B68124A93420CD1BB6823F08003BB604E
:101D30003B685B68BA681343BB607B681B68BA6822
:101D40009A607B68012283F83D207B68002283F83B
:101D50003C20002318461437BD4680BC704700BFA6
:101D6000002C0140000400400008004000400140F9
:101D700080B483B000AF786000BF0C37BD4680BC34
:101D8000704780B483B000AF786000BF0C37BD46A9
:101D900080BC704770B500260C4D0D4C641BA41020
:101DA000A64209D100F022F800260A4D0A4C641B15
:101DB000A410A64205D170BD55F8043B98470136E2
:101DC000EEE755F8043B98470136F2E7341E000869
:101DD000341E0008341E0008381E00080346024462
:101DE000934200D1704703F8011BF9E7F8B500BF33
:101DF000F8BC08BC9E467047F8B500BFF8BC08BCEC
:041E00009E46704743
:101E040000000000000000000102030406070809A6
:101E140002030405060708090A0B0C0D0E0F101027
:101E24000102030405060708090A0B0C0D0E0F1026
:041E3400F5010008AC
:041E3800D1010008CC
:101E3C000500000004000000000000000600000087
:101E4C00F401000000127A001000000001000000F4
:040000050800078167
:00000001FF
